:020000040800F2
:1000000008060020651D00082507000827070008CE
:100010002B0700082F070008330700080000000026
:10002000000000000000000000000000370700088A
:1000300039070008000000003B0700083D070008E2
:100040007F1D00087F1D00087F1D00087F1D000820
:100050007F1D00087F1D00087F1D00087F1D000810
:100060007F1D00087F1D00087F1D00087F1D000800
:100070007F1D00087F1D00087F1D00087F1D0008F0
:100080007F1D00087F1D00087F1D00087F1D0008E0
:100090007F1D00087F1D00087F1D00087F1D0008D0
:1000A0007F1D00087F1D00087F1D00087F1D0008C0
:1000B0007F1D0008FD0200087F1D00087F1D00084D
:1000C0007F1D00087F1D00087F1D00087F1D0008A0
:1000D0007F1D0008171800087F1D00087F1D0008FD
:1000E0007F1D00087F1D00087F1D00087F1D000880
:1000F0007F1D00087F1D00087F1D00087F1D000870
:100100007F1D00087F1D00087F1D00087F1D00085F
:100110007F1D00087F1D00087F1D00087F1D00084F
:100120007F1D00087F1D00087F1D00087F1D00083F
:100130007F1D00087F1D00087F1D00087F1D00082F
:100140007F1D00087F1D00087F1D00087F1D00081F
:100150007F1D00087F1D00087F1D00087F1D00080F
:100160007F1D00087F1D00087F1D00087F1D0008FF
:100170007F1D00087F1D00087F1D00087F1D0008EF
:100180007F1D00087F1D0008DFF810D003F076FB0C
:1001900000480047A1010008AFF3008008060020D6
:1001A000B2EE020AFC4880ED000AB2EE020AFB48F9
:1001B00080ED000A9FEDFA0AFA4880ED000A9FEDF3
:1001C000F80AF94880ED000AB6EE000AF74880ED1B
:1001D000000AB6EE000AF64880ED000A4FF4C0604F
:1001E00001F0D2FD4FF4A06001F0CEFD4FF480602D
:1001F00001F0CAFDA82001F033FD00F0A9FB00F0DA
:10020000DCFB01F08CF8A72144F61F6001F0D2F866
:10021000A72144F61F6001F036F9DFEDE60A9FEDF5
:10022000E60A00F04EFD4FF47A7001F07BFD40F2DB
:100230008F6140F2E73000F067FC01F08BF901F0CC
:1002400037FA01F0DEF958E0002000F0DFFBDB496F
:10025000087008460078012801D1D9490870D748AC
:100260000078022801D1D6490870D44800780328C4
:1002700001D1D3490870D1480078042801D1D04970
:100280000870CE480078052801D1CD490870CD48C6
:10029000CDA10268CE4803F003FBCD4A01210846F8
:1002A00000F07DFFC748CBA14268C94803F0F8FAC7
:1002B000C74A0121022000F072FFC84890ED000AF1
:1002C000BDEEC00A10EE102AC5A1C14803F0E8FA3D
:1002D000BF4A0121032000F062FFC04890ED010AEF
:1002E000BDEEC00A10EE102AC0A1B94803F0D8FA3A
:1002F000B74A0121042000F052FFA5E710B5012103
:10030000BD4802F08EFF01286DD1AD48007801286C
:1003100069D0AB480078022866D1B2EE000A9E4848
:1003200080ED000AB2EE000A9C4880ED000A9FEDC5
:10033000B30A9C4880ED000A9FEDB00A9A4880ED10
:10034000000A9FEDAF0A994880ED000A9FEDAC0AC4
:10035000974880ED000AAB480068062804DAC822F6
:10036000A949AA4800F0DBFC964890ED001AB8EEC7
:10037000C11AF0EE410A994890ED001AB0EE410A18
:1003800001F09DFBA24880ED000A8E4890ED011A15
:10039000B8EEC11AF0EE410A904890ED011AB0EEA5
:1003A000410A01F0E1FB9B4880ED000A9A4890ED7C
:1003B000000A9748D0ED000A30EE600A964880EDBA
:1003C000000A964890ED000A9248D0ED000A30EEFF
:1003D000600A924880ED000AD0ED000A8E4890ED48
:1003E000000A00F06EFC7EE175480078042866D1B2
:1003F000B2EE040A684880ED000AB2EE040A6748CB
:1004000080ED000A9FED660A664880ED000A9FEDC8
:10041000640A654880ED000A9FED790A634880ED23
:10042000000A9FED770A624880ED000A754800686F
:10043000062804DAFA227A49744800F070FC614810
:1004400090ED001AB8EEC11AF0EE410A634890ED43
:10045000001AB0EE410A01F032FB6D4880ED000A4F
:10046000584890ED011AB8EEC11AF0EE410A5B4807
:1004700090ED011AB0EE410A01F076FB654880ED7F
:10048000000A654890ED000A6148D0ED000A30EEA0
:10049000600A614880ED000A604890ED000A5D48FE
:1004A000D0ED000A30EE600A5C4880ED000AD0ED25
:1004B000000A594890ED000A00F003FC13E140489F
:1004C0000078032867D1B2EE040A334880ED000AB1
:1004D000B2EE040A314880ED000A9FED520A31481D
:1004E00080ED000A9FED4F0A2F4880ED000A9FED36
:1004F0004E0A2E4880ED000A9FED4B0A2C4880EDF5
:10050000000A40480068062805DA4FF4967244490C
:100510003E4800F004FC2B4890ED001AB8EEC11ADA
:10052000F0EE410A2D4890ED001AB0EE410A01F0BC
:10053000C6FA374880ED000A224890ED011AB8EE5D
:10054000C11AF0EE410A254890ED011AB0EE410AB9
:1005500001F00AFB2F4880ED000A2F4890ED000AB9
:100560002B48D0ED000A30EE600A2B4880ED000ADF
:100570002A4890ED000A2748D0ED000A30EE600AC4
:10058000264880ED000AD0ED000A234890ED000ACD
:1005900000F097FBA7E049E094000020B80000209D
:1005A0009A99993E98000020BC0000209C000020F1
:1005B000C000002000C0784400005C430000002020
:1005C000010000200C000020583A256400000000C3
:1005D00000010020593A2564000000006C00002052
:1005E000726563745F783A25640000007265637415
:1005F0005F793A2564000000000400406666663FAB
:10060000CDCCCC3DCC000020140000207C0000208C
:1006100064000020680000205400002058000020E2
:1006200084010020295C8F3ECDCC4C3DB2EE020A05
:100630002F4880ED000AB2EE020A2E4880ED000A33
:100640001FED290A2C4880ED000A1FED2B0A2B48CC
:1006500080ED000AB6EE000A294880ED000AB6EEE9
:10066000000A284880ED000A274890ED001AB8EEED
:10067000C11AF0EE410A254890ED001AB0EE410A89
:1006800001F01DFA224880ED000A1F4890ED011A82
:10069000B8EEC11AF0EE410A1C4890ED011AB0EE16
:1006A000410A01F061FA1B4880ED000A1A4890EDFA
:1006B000000A1748D0ED000A30EE600A164880EDB7
:1006C000000A164890ED000A1248D0ED000A30EEFC
:1006D000600A124880ED000AD0ED000A0E4890ED45
:1006E000000A00F0EEFA01210D4802F0ABFD10BD4A
:1006F00094000020B800002098000020BC000020DA
:100700009C000020C00000200C0000207C00002085
:1007100064000020680000205400002058000020E1
:1007200000040040704700BFFEE700BFFEE700BFC7
:10073000FEE700BFFEE77047704770477047000054
:100740000CB50020019000907648006840F480309D
:100750007449086000BF7348006800F400300090DE
:100760000198401C0190009818B90198B0F5A04F6D
:10077000F1D16C48006800F4003010B10120009005
:1007800001E0002000900098012846D165484030E3
:10079000006840F08050634940310860624800685A
:1007A00040F44040604908605E48083000685D4998
:1007B000083108600846006840F4004008600846B8
:1007C000006840F4A05008605848091F0860081FDE
:1007D000006840F08070091F086000BF5148006841
:1007E00000F000700028F9D040F205705049086010
:1007F0004C480830006820F003004A49083108607E
:100800000846006840F00200086000BF4548083014
:10081000006800F00C000828F8D10CBD10B5454860
:10082000006840F47000434908603E48006840F0AA
:1008300001003C49086000203A4908310860394805
:1008400000683D490840374908603C48091D086078
:10085000081F006820F48020091F0860002031492B
:100860000C310860FFF76CFF4FF0006031498039B0
:10087000086010BD70B50020002202230024022170
:10088000284D08352D6805F00C0020B1042806D04D
:10089000082834D107E02A4D2A4E356033E02A4D2E
:1008A000284E35602FE01F4D2D1D2D68C5F3805457
:1008B0001C4D2D1D2D6805F03F0154B1224DB5FB97
:1008C000F1F5184E361D3668C6F3881605FB06F29C
:1008D00009E01B4DB5FBF1F5124E361D3668C6F327
:1008E000881605FB06F20F4D2D1D2D68C5F3014539
:1008F0006D1C6B00B2FBF3F5124E356003E0104D3A
:10090000104E356000BF00BF064D08352D68C5F399
:1009100003150E4E705D0B4D2D68C540094E3560B8
:1009200070BD0000003802400070004008544007CD
:10093000003C024088ED00E0FFFFF6FE103000248E
:100940000024F400D000002000127A00D40000201F
:100950001CB50121042001F0ABFD0121402001F074
:10096000A7FD4FF40050009001208DF804000020F6
:100970008DF8060003208DF8050001208DF8070092
:1009800069465C4801F0F6FA4FF498400090012067
:100990008DF8040000208DF8060003208DF8050076
:1009A00001208DF807006946534801F0E3FA4FF43F
:1009B0000051504801F05AFB1CBD1CB501212020FC
:1009C00001F076FD1E20009000208DF80400032029
:1009D0008DF8050002208DF807006946474801F0B0
:1009E000C9FA0121084601F063FD4FF40040009070
:1009F00000208DF8040003208DF8050001208DF8FB
:100A0000070069463E4801F0B5FA1CBD10B5044622
:100A100014B101203B4908703A48007800284AD0B8
:100A20000221364801F008FB012817D00421334881
:100A300001F002FB012811D00821304801F0FCFA36
:100A400001280BD010212D4801F0F6FA012805D01D
:100A50004FF400412A4801F0EFFA60BB0A2001F090
:100A600061F90020274908700221244801F0E4FAC6
:100A7000012800D110BD0421204801F0DDFA012831
:100A800001D10220F6E708211C4801F0D5FA01281F
:100A900001D10320EEE71021184801F0CDFA01281A
:100AA00001D10420E6E74FF40041154801F0C4FAF3
:100AB000F0B90520DEE70221104801F0BDFAB8B90F
:100AC00004210E4801F0B8FA90B908210B4801F052
:100AD000B3FA68B91021094801F0AEFA40B94FF4F1
:100AE0000041074801F0A8FA012801D10549087022
:100AF0000020BFE700080240001802400014024036
:100B000000000240E40000207FB505460C460121AC
:100B1000022001F016FD0295ADF804400020ADF86A
:100B20000600ADF80C0001A90D4801F0C2FE01223B
:100B300011460B4802F05EFB0121094801F042FF1B
:100B40001D208DF8000000208DF8010003208DF895
:100B5000020001208DF80300684601F01AF97FBDFC
:100B60000004004070B504460D46002C07DA002052
:100B7000CB4908600120CB49C1F8A00206E0012062
:100B8000C74908600020C749C1F8A002002D08DA53
:100B90000020C3490C3108600120C249C1F8A402F9
:100BA00007E00120BE490C3108600020BD49C1F8B2
:100BB000A402002C08DA14F5487F00DABA4C61422E
:100BC000BA4802F066F808E0B4F5487F01DD4FF45A
:100BD00048742146B54802F05CF8002D08DA15F596
:100BE000487F00DAB04D6942B04802F050F808E0A2
:100BF000B5F5487F01DD4FF448752946AB4802F052
:100C000046F870BD70B504460D46002C07DA00208A
:100C1000A74908600120A749C1F8AC0206E00120FD
:100C2000A34908600020A349C1F8AC02002D08DAEE
:100C300000209F491031086001209E49C1F8BC0284
:100C400007E001209A491031086000209949C1F855
:100C5000BC02002C09DA94489638844200DA044633
:100C60006142924802F019F808E040F2B63084423E
:100C700000DD044621468D4802F00FF8002D09DA08
:100C800089489638854200DA05466942874802F06D
:100C900002F808E040F2B630854200DD05462946FC
:100CA000824801F0F8FF70BD002081490860814949
:100CB000C1F8AC027E49103108607E49C1F8BC021F
:100CC000704710B52DED028BB0EE408AF0EE608AD1
:100CD0009FED790AC8EE000A9FED780AB3EE041A78
:100CE00000EE810ABCEEC00A10EE104A214674489C
:100CF00001F0CDFF9FED700AC8EE800A9FED6F0AEC
:100D0000B3EE041A00EE810ABCEEC00A10EE104ADF
:100D100021466B4801F0BDFFBDEC028B10BD30B524
:100D2000684B1B68042B21D18C690B681B1B93FB40
:100D3000F2F3654D2D6803FB054300EE103AB8EE63
:100D4000C00A624B83ED000A4C68CB69E31A93FB3F
:100D5000F2F45D4DCB692D6804FB053300EE103ACB
:100D6000B8EEC00A594B83ED010A7BE0554B1B6876
:100D7000E3BB544B1B6851F8333000EE103AB8EE29
:100D8000C00AD0ED000A70EE600A00EE102AB8EE3C
:100D9000C00A80EE801A90ED000A4B4BD3ED000A9A
:100DA000F8EEE00A01EE200A484B83ED000A454BBD
:100DB0001B6801EBC30393ED010AB8EEC00AD0ED46
:100DC000010A70EE600A00EE102AB8EEC00A80EE4A
:100DD000801A90ED010A3C4BD3ED000AF8EEE00AD0
:100DE00001EE200A394B83ED010A3BE0FFE7354B6A
:100DF0001B6851F83340334B1B685B1E51F833308E
:100E0000E31A93FBF2F42F4B1B685B1E51F833304F
:100E10002D4D2D6804FB053300EE103AB8EEC00AE4
:100E20002A4B83ED000A274B1B6801EBC3035C6868
:100E3000244B1B685B1E01EBC3035B68E31A93FB47
:100E4000F2F4204B1B685B1E01EBC3035B681E4D75
:100E50002D6804FB053300EE103AB8EEC00A1B4BB8
:100E600083ED010A184B1B685B1C174C236023465B
:100E70001B68934212DD00232360124B1B685B1C2E
:100E8000104C2360124B1B685B1C114C23600D4BF4
:100E90001B68042B02DD01230A4C236030BD0000D7
:100EA0009C82424200804242E0FCFFFF0000014081
:100EB000A802434200004342000034430080BB4488
:100EC0000040014074000020780000206C000020E9
:100ED000CC0000201CB50121022001F0E9FA01201C
:100EE0008DF8040000208DF806004FF4407000904B
:100EF00001208DF8070002208DF805006946F648AC
:100F000001F038F801221102F34801F0B3F8012290
:100F10005102F14801F0AEF81CBD10B5012251029A
:100F2000ED4801F0A7F80A2000F0B4FE01221102FA
:100F3000E94801F09FF80A2000F0ACFE00224FF4CF
:100F40000071E54801F096F80A2000F0A3FE0022A7
:100F50004FF48071E04801F08DF80A2000F09AFE0D
:100F600010BD10B500224FF40071DB4801F082F88B
:100F70000A2000F08FFE01221102D74801F07AF812
:100F80000A2000F087FE01225102D34801F072F8D6
:100F90000A2000F07FFE10BD70B5054600241EE05B
:100FA0008020204100EA05024FF40071CA4801F098
:100FB00061F80A2000F06EFE01221102C64801F01D
:100FC00059F80A2000F066FE00224FF48071C248F2
:100FD00001F050F80A2000F05DFE601CC4B2082C3D
:100FE000DEDB01221102BC4801F044F80A2000F0C7
:100FF00051FE00224FF48071B74801F03BF80A20FF
:1010000000F048FE70BD10B50446FFF786FF78205B
:10101000FFF7C2FF0020FFF7BFFF2046FFF7BCFF2E
:10102000FFF79FFF10BD10B50446FFF776FF78204D
:10103000FFF7B2FF4020FFF7AFFF2046FFF7ACFFFE
:10104000FFF78FFF10BD70B505460C4645F0B000A8
:10105000FFF7D9FF102141EA1410FFF7D4FF04F085
:101060000F00FFF7D0FF70BD70B504460D4605F1C7
:10107000B001C8B2FFF7C7FF102141EA1410FFF713
:10108000C2FF04F00F0141F00100FFF7BCFF70BD8B
:1010900070B500240EE000212046FFF7D4FF0025A4
:1010A00004E00020FFF7BFFF681CC5B2802DF8DB0D
:1010B000601CC4B2082CEEDB70BD2DE9F041054682
:1010C0000E461746721ED206110E6A1E5206100EEA
:1010D000FFF7B9FF002409E0A7F120017F4A02EBE6
:1010E0000111085DFFF79FFF601CC4B2082CF3DB01
:1010F000721ED206110E6A1E012303EB4202D0B209
:10110000FFF7A1FF00240BE0A7F12001734A02EBD7
:10111000011204F10801505CFFF785FF601CC4B2A6
:10112000082CF1DBBDE8F0812DE9F05F06460F46A3
:1011300090461C46DDF828A04FF0000BE11704EBA9
:101140005171C910A4EBC10131B92046E11704EB7C
:101150005171C1F3C70506E02046E11704EB517158
:10116000C910491CCDB23D4615E029463046FFF76F
:101170007BFFB1460BE059464A1C1FFA82FB1AF866
:101180000100FFF750FF09F1010000F0FF09C14520
:10119000F1DB681CC5B2A542E7DBBDE8F09F2DE995
:1011A000F04107460E461546002407E02A5D301937
:1011B000C1B23846FFF781FF601CC4B2285D002829
:1011C000F4D1BDE8F08110B50246012000E05043A3
:1011D0000B1EA1F10101FAD110BD2DE9F0478046A7
:1011E0000E4617461D46002415E0281B411E0A2006
:1011F000FFF7E9FFB7FBF0F00A21B0FBF1F201FBCA
:10120000120000F130093019C1B24A464046FFF7DA
:1012100054FF601CC4B2AC42E7DBBDE8F0872DE9A7
:10122000F0478146884615461E46002D06DB2B22D8
:1012300041464846FFF741FF2F4605E02D22414633
:101240004846FFF73AFF6F42002417E0301B411E6B
:101250000A20FFF7B8FFB7FBF0F00A21B0FBF1F26C
:1012600001FB120000F1300A08EB0400401CC1B27F
:1012700052464846FFF721FF601CC4B2B442E5DB8A
:10128000BDE8F0872DE9F04781460E4690461F469F
:1012900000241DE0381B411E1020FFF794FFB8FB0F
:1012A000F0F000F00F050A2D08DA05F13000C2B2A7
:1012B0003019C1B24846FFF700FF07E005F13700DB
:1012C000C2B23019C1B24846FFF7F7FE601CC4B283
:1012D000BC42DFDBBDE8F08700040240463A00086C
:1012E0002DE9F04780460E4617461D46002412E0C1
:1012F000281B411E0220FFF766FFB7FBF0F000F04D
:10130000010000F130093019C1B24A464046FFF7EA
:10131000D4FE601CC4B2AC42EADBBDE8F08710B575
:10132000FFF7D8FDAE20FFF76EFED520FFF76BFE6E
:101330008020FFF768FEA820FFF765FE3F20FFF73B
:1013400062FED320FFF75FFE0020FFF75CFE402027
:10135000FFF759FEA120FFF756FEC820FFF753FE06
:10136000DA20FFF750FE1220FFF74DFE8120FFF735
:101370004AFECF20FFF747FED920FFF744FEF120B9
:10138000FFF741FEDB20FFF73EFE3020FFF73BFE7C
:10139000A420FFF738FEA620FFF735FE8D20FFF7CB
:1013A00032FE1420FFF72FFEAF20FFF72CFEFFF7D1
:1013B0006FFE10BD30B58BB004460D4601210846C6
:1013C00001F0D0F80121102001F072F8012209216A
:1013D0005D4800F05AFE01220B215B4800F055FEEB
:1013E00001220D21584800F050FE01220E215648DE
:1013F00000F04BFE4FF4D440099002208DF82800F5
:1014000003208DF8290000208DF82A0001208DF896
:101410002B0009A94C4800F0ADFDA8B2ADF81800AA
:101420000020ADF81A000794ADF8200006A947483F
:1014300001F03FFA6020ADF804000120ADF806008D
:101440000020ADF81000ADF8140001A93F4801F0EC
:101450004BFB01A93D4801F0ADFB08213B4801F0E1
:1014600060FC0821394801F065FC0121374801F092
:101470008BFA0121354801F0A5FA0121334801F02A
:1014800092FE0BB030BD30B58BB004460D46012145
:10149000080401F067F80121102001F009F8032287
:1014A0000521294800F0F1FD03220621264800F01D
:1014B000ECFD6020099002208DF8280003208DF8B3
:1014C000290000208DF82A0001208DF82B0009A9A1
:1014D0001D4800F04FFDA8B2ADF818000020ADF88F
:1014E0001A000794ADF8200006A9194801F0E1F9A7
:1014F0006020ADF804000120ADF806000020ADF832
:101500001000ADF814003220039001A9104801F03A
:1015100065FA01A90E4801F09AFA08210C4801F079
:10152000EAFB08210A4801F0EFFB0121084801F01D
:101530002BFA0121064801F045FA0121044801F087
:1015400032FE0BB030BD0000001002400000014030
:101550000040014000B587B00121102001F002F8E1
:101560000121084600F0A4FF07220921FE4800F0EF
:101570008CFD07220A21FC4800F087FD4FF4C06073
:10158000059002208DF818008DF8190000208DF8C4
:101590001A0001208DF81B0005A9F34800F0EAFCB1
:1015A0004FF4E13001900020ADF80800ADF80A00DA
:1015B000ADF80C00ADF810000C20ADF80E0001A93C
:1015C000EA4801F082FF012240F22551E74802F08B
:1015D000BAF84FF4A06000F0D7FB25208DF800008A
:1015E00001208DF803008DF8010002208DF8020023
:1015F000684600F0CEFB0121DC4801F0EEFF07B0A9
:1016000000BD00B587B00121880400F09AFF0121D8
:10161000022000F04DFF07220A21D54800F035FDD9
:1016200007220B21D24800F030FD4FF440600590B6
:1016300002208DF818008DF8190000208DF81A008E
:1016400001208DF81B0005A9C94800F093FC4FF458
:10165000E13001900020ADF80800ADF80A00ADF8C7
:101660000C00ADF810000C20ADF80E0001A9C14827
:1016700001F02BFF012240F22551BE4802F063F831
:101680004FF4A06000F080FB27208DF800000120BF
:101690008DF803008DF8010002208DF802006846E5
:1016A00000F077FB0121B34801F097FF07B000BDC0
:1016B00000B587B00121480400F043FF012108462E
:1016C00000F0F6FE07220221A74800F0DEFC072208
:1016D0000321A54800F0D9FC0C20059002208DF8CC
:1016E00018008DF8190000208DF81A0001208DF8DF
:1016F0001B0005A99C4800F03DFC4FF416500190DA
:101700000020ADF80800ADF80A00ADF80C00ADF807
:1017100010000C20ADF80E0001A9974801F0D5FE8D
:10172000012240F22551944802F00DF84FF4A060D8
:1017300000F02AFB26208DF8000001208DF8030020
:101740008DF8010002208DF80200684600F021FBB0
:101750000121894801F041FF07B000BD10B50446E2
:101760002146824801F064FF00BF80217F4802F0DB
:101770000FF80028F9D010BD10B5044621467B486B
:1017800001F056FF00BF8021784802F001F80028E0
:10179000F9D010BD70B505460E46002404E0285D62
:1017A000FFF7DCFF601C84B2B442F8DB70BD70B59B
:1017B0000446002504E0605DFFF7D0FF681CC5B259
:1017C000605D0028F7D170BD10B50246012000E031
:1017D00050430B1EA1F10101FAD110BD2DE9F041DA
:1017E00006460C46002512E0601B411E0A20FFF74A
:1017F000EBFFB6FBF0F00A21B0FBF1F201FB1200A7
:1018000000F130073846FFF7A9FF681CC5B2A542B2
:10181000EADBBDE8F08110B540F22551534801F0F4
:10182000CDFF00287ED0514801F006FF53490A68D9
:101830000968491C514B1960514941F8220008467A
:101840000068A32802D00020194608604B480068B1
:10185000022806D14A484068B32802D000204749F0
:1018600008604648006813285CD14548806CC3284E
:1018700076D14348C0684349086041488068486061
:101880003F48406988603E4801693E48C1603C4825
:10189000C0693C4908613A4881693A484161384821
:1018A000406A384988613648016A3648C16134481F
:1018B000C06A344908623248816A3248416230481D
:1018C000406B304988622E48016B2E48C1622C481B
:1018D000C06B2C4908632A48816B2A484163284819
:1018E000406C284988632648016C2648C1634168DA
:1018F000006801EB0020244908602248C168806824
:1019000001EB0020204948601E484169006901EB55
:1019100000201D4988601B48C169806901EB0021D6
:10192000194800E037E0C1601648416A006A01EBDF
:101930000020154908611348C16A806A01EB002143
:10194000114841610F48416B006B01EB00200E49CB
:1019500088610C48C16B806B01EB00210A48C161B2
:1019600000200649086011E000000240001001401C
:10197000000402400048004000440040E80000200D
:101980000C01002084010020E401002040F22551D8
:10199000014801F04EFF10BD00100140DFED9D1A1F
:1019A000C0ED001ADFED9B1AC0ED011ADFED991AA8
:1019B000C0ED021ADFED971AC0ED031ADFED951A9C
:1019C000C0ED081ADFED931AC0ED071A80ED040A86
:1019D000C0ED050A80ED061A7047B0EE401A80EDA2
:1019E000001A90ED000A30EE600A80ED010A90EDD9
:1019F000070AD0ED011A30EE210A80ED070A90EDBA
:101A0000040AD0ED011A20EE210AD0ED051A90ED5E
:101A1000072A01EE820AD0ED011A90ED022A71EE3A
:101A2000C21A90ED062A02EE210A80ED080A90ED16
:101A3000010A80ED020A90ED080A7047B0EE401AE4
:101A400080ED001A90ED000A30EE600A80ED010A88
:101A500090ED070AD0ED011A30EE210A80ED070A59
:101A600090ED010AD0ED021A30EE610AD0ED041AB1
:101A700020EE210AD0ED051A90ED012A01EE820A2E
:101A8000D0ED011A90ED022A71EEC21A90ED032AF0
:101A900071EE821A90ED022A71EEC21A90ED062ABA
:101AA00002EE210A80ED080A90ED020A80ED030A99
:101AB00090ED010A80ED020A90ED080A7047B0EE41
:101AC000401A554880ED001A90ED000A30EE600A89
:101AD000524880ED000A524890ED000A4F48D0ED80
:101AE000001A30EE210A4E4880ED000A4B4890ED76
:101AF000000A4C48D0ED001A30EE610A4A48D0ED99
:101B0000001A20EE210A4948D0ED001A434890ED12
:101B1000002A01EE820AD0ED001A424890ED002A18
:101B200071EEC21A424890ED002A71EE821A3D48C9
:101B300090ED002A71EEC21A3E4890ED002A02EEA6
:101B4000210A3D4880ED000A364890ED000A3848E9
:101B500080ED000A314890ED000A324880ED000A1D
:101B6000354890ED000A7047B0EE401A334880EDDA
:101B7000001A90ED000A30EE600A314880ED000A4C
:101B8000304890ED000A2E48D0ED001A30EE210AC0
:101B90002C4880ED000A2A4890ED000A2A48D0ED32
:101BA000001A30EE610A2948D0ED001A20EE210A11
:101BB0002748D0ED001A224890ED002A01EE820A53
:101BC000D0ED001A204890ED002A71EEC21A21488B
:101BD00090ED002A71EE821A1B4890ED002A71EEFA
:101BE000C21A1D4890ED002A02EE210A1B4880ED22
:101BF000000A154890ED000A164880ED000A1048CA
:101C000090ED000A104880ED000A144890ED000A9B
:101C100070470000000000008400002088000020C1
:101C2000A00000208C0000209400002098000020DC
:101C3000900000209C000020A4000020A8000020AC
:101C4000AC000020C4000020B0000020B80000203C
:101C5000BC000020B4000020C0000020C80000200C
:101C600010B504466FF0040000F0E0F8E11704EB53
:101C70005171C1F3C701394A11701046007800EB69
:101C80004001C1EBC0104FF6FF7101EAC0003449BA
:101C9000088010BD0146314A12784A434FF0E023D4
:101CA0005A6100229A611A46126942F001021A61D1
:101CB00000BF4FF0E022106900F001021AB100F4F9
:101CC0008032002AF5D04FF0E022126922F00102A2
:101CD0004FF0E0231A6100229A6170470146204AC2
:101CE00012884A434FF0E0235A6100229A611A4653
:101CF000126942F001021A6100BF4FF0E022106940
:101D000000F001021AB100F48032002AF5D04FF041
:101D1000E022126922F001024FF0E0231A61002252
:101D20009A61704770B504464FF4077094FBF0F069
:101D3000C6B24FF4077094FBF0F100FB114085B27E
:101D400005E04FF40770FFF7C9FF701EC6B2002E02
:101D5000F7D115B12846FFF7C1FF70BDEC00002098
:101D6000EE0000200648804706480047FEE7FEE7F1
:101D7000FEE7FEE7FEE7FEE7FEE7FEE7FEE7FEE73B
:101D80001D0800088901000832490143324A1160E8
:101D9000704770B5002100230F22C4781CB32E4C6D
:101DA000246804F4E064C4F5E064C4F30721C1F1DD
:101DB0000404E3B20A4144789C40E1B284781440C0
:101DC00021430C07210E254C05786155047804F059
:101DD0001F050124AC4005786D11AD0005F1E0252B
:101DE000C5F8004109E0047804F01F050124AC4067
:101DF0001B4D0678761145F8264070BD194A0A40F9
:101E00000243154B1B1F1A60704739B1124A121D4D
:101E100012680243104B1B1D1A6006E00E4A121D89
:101E2000126882430C4B1B1D1A607047042808D1AE
:101E30004FF0E021096941F004014FF0E022116107
:101E400007E04FF0E021096921F004014FF0E022A2
:101E5000116170470000FA050CED00E000E400E0BD
:101E600080E100E080FFFF1F10B5044698488442DF
:101E700008D10121084600F086FB0021012000F076
:101E800082FB76E09348844208D10121022000F0D1
:101E90007AFB0021022000F076FB6AE08E48844243
:101EA00008D10121042000F06EFB0021042000F085
:101EB0006AFB5EE08948844208D10121082000F0D5
:101EC00062FB0021082000F05EFB52E0844884425F
:101ED00008D10121102000F056FB0021102000F055
:101EE00052FB46E07F48844208D10121202000F0C7
:101EF0004AFB0021202000F046FB3AE07A48844269
:101F000008D10121402000F03EFB0021402000F0DC
:101F10003AFB2EE07548844208D10121802000F070
:101F200032FB0021802000F02EFB22E0704884422A
:101F300008D10121801500F026FB0021A01500F03A
:101F400022FB16E06B48844208D10121401500F0C5
:101F50001AFB0021601500F016FB0AE06648844277
:101F600007D10121001500F00EFB0021201500F023
:101F70000AFB10BDF0B50A4600210023002400BF73
:101F80003DE0012505FA01F3156805EA03049C42CA
:101F900034D105684F000326BE40B543056015796E
:101FA0004E00B5400668354305601579012D02D015
:101FB0001579022D16D185684F000326BE40B54322
:101FC000856055794E00B540866835438560456823
:101FD00001268E40B5434560456896798E40B6B27D
:101FE00035434560C5684F000326BE40B543C56014
:101FF000D5794E00B540C6683543C560491C1029E7
:10200000BFD3F0BD4FF6FF71016000210171417136
:102010008171C171704708B54FF480320092009A07
:102020000A430092009AC261C161009AC261C2690A
:102030000092C269009208BD0246002013690B405D
:102040000BB1012000E0002070470146086980B212
:1020500070470246002053690B400BB1012000E09D
:10206000002070470146486980B27047018370477D
:10207000418370470AB1018300E0418370474161A9
:10208000704742694A4042617047F0B5002300241E
:102090004D07ED0E02FA05F3CE1000F1200555F8BC
:1020A00026504E07F70E0F26BE40B543CF1000F165
:1020B000200646F82750CE1000F1200555F826508E
:1020C00045EA0304CE1000F1200545F82640F0BD96
:1020D000000002400004024000080240000C0240E0
:1020E000001002400014024000180240001C024090
:1020F000002002400024024000280240F948006805
:1021000040F00100F74908600020F64908310860F6
:10211000F4480068F4490840F2490860F348091D92
:102120000860F348EF4984310860F0481038091D11
:102130000860EC48006820F48020EA49086000202C
:10214000E8490C310860E7498C310860704700218C
:10215000E44A921C117011460870704710B5014690
:102160000022002300204A11012A02D1DD4C2368FD
:1021700008E0022A03D1DB4C7034236802E0D94C1A
:102180007434236801F01F02012494401C400CB1F8
:10219000012000E0002010BD38B500200090002490
:1021A000002500BF3120FFF7D9FF05460098401CED
:1021B00000900098B0F5A04F01D0002DF2D0312052
:1021C000FFF7CCFF08B1012400E00024204638BD11
:1021D00001460020C34A106820F0F80040EAC10020
:1021E00010607047C349086070470021BD4A7032D3
:1021F00011701170012802D004280AD104E00121D5
:10220000B84A7032117005E00521B64A703211707B
:1022100000E000BF00BF7047B7490860704770B565
:10222000049C41EA82150126C6EB530645EA0645A1
:10223000054345EA0465AB4E361D356070BDAD49BA
:1022400008667047820142EA0172A64B84331A6025
:102250007047A8498866704710B5830143EA016357
:1022600043EA02739F4C8834236010BDA14908677C
:102270007047A049C864704702460020994B083354
:10228000186820F0EC6042EA01031843954B0833CC
:102290001860704702460020924B0833186820F0FF
:1022A000784042EA010318438E4B083318607047A8
:1022B000014600208B4A0832106820F003000843D2
:1022C0001060704787480830006800F00C007047C5
:1022D00001460020834A0832106820F0F0000843CD
:1022E00010607047014600207E4A0832106820F4D2
:1022F000E05008431060704701460020794A0832D8
:10230000106820F4604040EAC10010607047F0B5EA
:10231000002100220024022500260223714F0837E5
:102320003F6807F00C0121B1042905D0082937D1F5
:1023300005E0724F076036E0714F076033E0694F88
:102340003F1D3F68C7F38056664F3F1D3F6807F04B
:102350003F036EB16A4FB7FBF3F7DFF888C10CF1AA
:10236000040CDCF800C0CCF3881C07FB0CF40CE078
:10237000624FB7FBF3F7DFF86CC10CF1040CDCF82B
:1023800000C0CCF3881C07FB0CF4564F3F1D3F6880
:10239000C7F301477F1C7D00B4FBF5F7076002E03F
:1023A000564F076000BF00BF4E4F08373F6807F029
:1023B000F0010909534F7A5C0768D7404760494FDD
:1023C00008373F6807F4E051890A4E4F7A5C476846
:1023D000D7408760434F08373F6807F46041490B97
:1023E000484F7A5C4768D740C760F0BD002100F4D1
:1023F0004072B2F5407F0AD13A4A0832116821F49E
:10240000F811414A02401143364A08321160354AF8
:1024100070321268C0F30B031A43324B70331A60E8
:10242000704735494439086070473349403908607E
:10243000704736490860704701460020294A8C32AF
:10244000106820F01F004A1E1043264A8C3210608C
:10245000704701460020234A8C32106820F4F8505F
:102460004A1E40EA02201F4A8C3210607047014623
:1024700000201C4A8C32106820F440100843106081
:10248000704701460020174A8C32106820F4400043
:1024900008431060704701460020124A8C321068D1
:1024A00020F44030084310607047194908607047B5
:1024B00039B10C4A3032126802430A4B30331A6089
:1024C00006E0084A303212688243064B30331A6005
:1024D0007047F9B1034A343212680243014B343376
:1024E0001A601CE000380240FFFFF6EA10300024BA
:1024F0000030002000004742800E47420024F400D4
:1025000000127A00F0000020FFFCFF0F5C01474240
:10251000E01147428F4A126882438E4B1A6070471F
:1025200039B18C4A121D126802438A4B1B1D1A6076
:1025300006E0884A121D12688243864B1B1D1A60F2
:10254000704739B1834A0C3212680243814B0C3315
:102550001A6006E07F4A0C32126882437D4B0C33CE
:102560001A60704739B17B4A103212680243794BC6
:1025700010331A6006E0774A103212688243754BB6
:1025800010331A60704739B1724A243A1268024314
:10259000704B243B1A6006E06E4A243A126882436C
:1025A0006C4B243B1A60704739B16A4A203A126872
:1025B0000243684B203B1A6006E0664A203A1268E4
:1025C0008243644B203B1A60704739B1614A1C3A20
:1025D000126802435F4B1C3B1A6006E05D4A1C3ADE
:1025E000126882435B4B1C3B1A60704739B1594AF1
:1025F000143A12680243574B143B1A6006E0554ADE
:10260000143A12688243534B143B1A60704739B135
:10261000504A103A126802434E4B103B1A6006E0D3
:102620004C4A103A126882434A4B103B1A6070477A
:1026300039B1484A1C3212680243464B1C331A60B7
:1026400006E0444A1C3212688243424B1C331A6033
:10265000704739B13F4A2032126802433D4B203364
:102660001A6006E03B4A203212688243394B20331D
:102670001A60704739B1374A243212680243354B29
:1026800024331A6006E0334A243212688243314B05
:1026900024331A60704739B12E4A2C321268024333
:1026A0002C4B2C331A6006E02A4A2C3212688243E3
:1026B000284B2C331A60704739B1264A30321268E1
:1026C0000243244B30331A6006E0224A303212684B
:1026D0008243204B30331A607047012808D11D49CE
:1026E0003C31096841F008011A4A3C32116007E0A8
:1026F00018493C31096821F00801164A3C32116042
:10270000704739B1134A273A12780243114B273BDD
:102710001A7006E00F4A273A127882430D4B273B86
:102720001A7070470B484030006840F080700949CB
:1027300040310860704701460020064A283A126876
:102740000A400AB1012000E0002070470149263903
:10275000087070473438024010B50446FE48844281
:1027600008D101210846FFF752FF00210120FFF7A1
:102770004EFF9DE0B4F1804F08D101210846FFF7DC
:1027800035FF00210120FFF731FF91E0F34884423B
:1027900008D101210220FFF729FF00210220FFF7C5
:1027A00025FF85E0EE48844208D101210420FFF78F
:1027B0001DFF00210420FFF719FF79E0E94884425A
:1027C00008D101210820FFF711FF00210820FFF7A1
:1027D0000DFF6DE0E448844208D101211020FFF78D
:1027E00005FF00211020FFF701FF61E0DF48844270
:1027F00008D101212020FFF7F9FE00212020FFF75A
:10280000F5FE55E0DA48844208D101210220FFF7A5
:10281000FEFE00210220FFF7FAFE49E0D54884427F
:1028200009D101210804FFF7F2FE00214FF48030A6
:10283000FFF7EDFE3CE0D048844209D10121480475
:10284000FFF7E5FE00214FF40030FFF7E0FE2FE038
:10285000CA48844209D101218804FFF7D8FE00212B
:102860004FF48020FFF7D3FE22E0C548844208D110
:1028700001214020FFF7BAFE00214020FFF7B6FEFD
:1028800016E0C048844208D101218020FFF7AEFE47
:1028900000218020FFF7AAFE0AE0BB48844207D14E
:1028A00001218015FFF7A2FE0021A015FFF79EFE73
:1028B00010BD00220288A84B98420ED0AC4B984223
:1028C0000BD0B0F1804F08D0A44B984205D0A44B58
:1028D000984202D0A34B984204D14FF68F731A400E
:1028E0004B881A43A04B984207D0A04B984204D083
:1028F0004FF6FF431A400B891A4302804B68C362AC
:102900000B880385944B984202D0994B984201D191
:102910008B7A03860123838270474FF0FF31416039
:10292000002101800181418081727047018582828E
:1029300070470A46002101884FF68F7319401143F2
:102940000180704741627047C16270470146486A22
:1029500070470146088D704721B1028842F002029B
:10296000028004E002884FF6FD731A40028070472F
:1029700021B1028842F00402028004E002884FF68E
:10298000FB731A400280704721B1028842F0800236
:10299000028004E002884FF67F731A40028070477D
:1029A00002884FF6F7731A40028002880A430280B9
:1029B000704702884FF6FF431A40028002880A439C
:1029C0000280704721B1028842F00102028004E0D7
:1029D00002884FF6FE731A400280704770B50024DB
:1029E00000220023058C4FF6FE7635400584028CCC
:1029F0008388048B4FF68F752C40B51E2C400D88B4
:102A00002C43751E2A408D892A434D882A43524DF6
:102A1000A84202D0564DA84213D14FF6F7752A406E
:102A2000CD892A434FF6FB752A408D882A434FF6FD
:102A3000FF652B404FF6FF552B400D8A2B434D8AE7
:102A40002B43838004838D684563028470BD70B519
:102A5000002400220023058C4FF6EF7635400584D4
:102A6000028C8388048B48F6FF752C404FF6FF4597
:102A70002C400D884FF6FF7606EA05252C434FF6CD
:102A8000DF752A408D8906EA05152A434D8806EA36
:102A900005152A43304DA84202D0354DA8421DD11C
:102AA0004FF67F752A40CD894FF6FF7606EA051569
:102AB0002A434FF6BF752A408D8806EA05152A433A
:102AC0004FF6FF352B404FF2FF752B400D8A06EA7B
:102AD00085052B434D8A06EA85052B4383800483B5
:102AE0008D688563028470BD70B5002400220023C8
:102AF000058C4FF6FF6635400584028C8388848BF5
:102B00004FF68F752C404FF6FC752C400D882C43EA
:102B10004FF6FF552A408D894FF6FF7606EA0525C8
:102B20002A434D8806EA05252A430B4DA84202D0C8
:102B30000F4DA84238D14FF2FF752A40CD894FF68C
:102B4000FF7606EA05252A434FF6FF352A408D8891
:102B500006EA05252A4319E0000001400004004070
:102B600000080040000C004000100040001400402D
:102B70000004014000400140004401400048014081
:102B800000180040001C0040002000404EF6FF7579
:102B90002B404DF6FF752B400D8A06EA05152B4399
:102BA0004D8A06EA05152B43838084838D68C563AF
:102BB000028470BD70B5002200230024058C4EF6FF
:102BC000FF7635400584038C8488828B48F6FF7538
:102BD0002A404FF6FF452A400D884FF6FF7606EA59
:102BE00005252A434DF6FF752B408D8906EA0535EC
:102BF0002B434D8806EA05352B43FE4DA84202D0F3
:102C0000FD4DA84208D14BF6FF752C400D8A4FF6BA
:102C1000FF7606EA85152C43848082838D680564DF
:102C2000038470BD002101804180818081608181A9
:102C3000C18101824182704770B5034600200024A3
:102C40001846183001258D40ACB21D8CA5431D845B
:102C500009B108290AD100EB610005684FF68F76AB
:102C6000354005600568154305600FE00D1FC5F38D
:102C70004E052844056848F6FF763540056005682E
:102C80004FF6FF7606EA02263543056070BD4163C4
:102C9000704781637047C1637047016470470A469B
:102CA0000021018B4FF68F73194011430183704748
:102CB0000A460021018B48F6FF7319404FF6FF7357
:102CC00003EA02231943018370470A460021818BDE
:102CD0004FF68F7319401143818370470A460021D4
:102CE000818B48F6FF7319404FF6FF7303EA022306
:102CF0001943818370470A460021018B4FF6F77311
:102D000019401143018370470A460021018B4FF29D
:102D1000FF7319404FF6FF7303EA0223194301833F
:102D200070470A460021818B4FF6F7731940114313
:102D3000818370470A460021818B4FF2FF7319404F
:102D40004FF6FF7303EA02231943818370470A4653
:102D50000021018B4FF6FB7319401143018370472B
:102D60000A460021018B4FF6FF3319404FF6FF73DF
:102D700003EA02231943018370470A460021818B2D
:102D80004FF6FB7319401143818370470A460021B7
:102D9000818B4FF6FF3319404FF6FF7303EA02238E
:102DA0001943818370470A460021018B4FF67F73D8
:102DB00019401143018370470A460021018BC1F37A
:102DC0000E014FF6FF7303EA022319430183704794
:102DD0000A460021818B4FF67F731940114381838E
:102DE00070470A460021818BC1F30E014FF6FF7335
:102DF00003EA02231943818370470A460021018CAC
:102E00004FF6FD7319401143018470470A460021B3
:102E1000018C4FF6F77319401143018470470A463D
:102E20000021018C4FF6DF7319404FF6FF7303EA60
:102E300002131943018470470A460021018C4FF6A2
:102E40007F7319404FF6FF7303EA0213194301849D
:102E500070470A460021018C4FF6FF5319404FF688
:102E6000FF7303EA02231943018470470A460021D5
:102E7000018C4FF2FF7319404FF6FF7303EA0223F0
:102E80001943018470470A460021018C4DF6FF73F7
:102E900019404FF6FF7303EA023319430184704768
:102EA00030B5002301248C40A3B2048C9C430484DD
:102EB000048C02FA01F5ADB22C43048430BD30B568
:102EC000002304248C40A3B2048C9C430484048C0F
:102ED00002FA01F5ADB22C43048430BD828B4FF26F
:102EE000FF331A408283828B4FF6FF7303EA01237C
:102EF0001A4382837047F0B50C4615460021002224
:102F00000026078C4EF6FF7C07EA0C070784818BAE
:102F1000028C4FF6FF7707EA043640F6FF47394048
:102F20004FF6FF7707EA052739434FF6FF7707EAA1
:102F30000337394345F6FF773A4046F480573A4322
:102F400081830284F0BD828B4FF6F3731A40828333
:102F5000828B0A4382837047F0B50C4615460021E8
:102F600000220026078C4FF6FF6C07EA0C07078447
:102F7000818B028C4FF6FF7707EA04264FF60C7719
:102F800039404FF6FF7707EA03172F4339434FF2D3
:102F9000FF573A4046F480773A4381830284F0BD7C
:102FA000028B4FF2FF331A400283028B4FF6FF73FE
:102FB00003EA01231A4302837047F0B50C46154615
:102FC000002100220026078C4FF6EF7C07EA0C0751
:102FD0000784018B028C4FF6FF7707EA041640F650
:102FE000FF4739404FF6FF7707EA033739434FF67B
:102FF000FF7703E0000001400004014007EA0527D5
:1030000039434FF65F773A4046F010073A43018361
:103010000284F0BD028B4FF6F3731A400283028BD9
:103020000A4302837047F0B50C4615460021002282
:10303000068C4FF6FE773E400684018B028C4FF6DD
:103040000C7631407E1C06EA03162E4331434FF6C0
:10305000F576324044F00106324301830284F0BD2C
:1030600070B505460C46208850B92389A28861882E
:103070002846FFF7D8FFE1882846FFF7CBFF25E079
:10308000208804280AD12389A28861882846FFF76E
:1030900094FFE1882846FFF783FF17E0208808287F
:1030A0000AD12389A28861882846FFF755FFE18865
:1030B0002846FFF748FF09E02389A288618828464F
:1030C000FFF719FFE1882846FFF708FF70BD0021D0
:1030D00001804180012181800021C18001817047F0
:1030E0002DE9F04105460C4600260127608808B905
:1030F000022600E00026A088012801D1022700E076
:1031000001272088A0B92389A28861882846FFF773
:103110008AFFE1882846FFF77DFF23893A4631463A
:103120002846FFF74AFFE1882846FFF739FF13E0FA
:103130002389A28861882846FFF73FFFE188284657
:10314000FFF72EFF23893A4631462846FFF76BFFEB
:10315000E1882846FFF75EFFBDE8F0810146486B35
:1031600070470146886B70470146C86B704701463F
:10317000086C70470A884B881A438B881A43CB889F
:103180001A430B891A434B891A438B891A43A0F8B7
:10319000442070470021018041808180C1800181ED
:1031A00041818181704731B1B0F8442042F400423E
:1031B000A0F8442005E0B0F84420C2F30E02A0F8C5
:1031C0004420704721B1828842F00402828004E0EA
:1031D00082884FF6FB731A408280704721B1828843
:1031E00042F00102828004E082884FF6FE731A40AA
:1031F000828070471AB183890B43838102E08389FF
:103200008B43838170478182704702460020138A76
:103210000B400BB1012000E000207047CA4302823E
:10322000704730B50246002000230024158A05EAC5
:103230000103958905EA010413B10CB1012000E0F6
:10324000002030BDCA430282704741EA0203A0F861
:10325000483070471AB183890B43838102E0838928
:103260008B438381704721B1828842F008028280BB
:1032700004E082884FF6F7731A4082807047018914
:103280004FF6F8721140018170470A46002101890A
:103290004FF68F73194011430181704730B50446D2
:1032A0000D4629462046FFF7F0FF208940F0070031
:1032B000208130BD2DE9F04104460D4616461F46DB
:1032C000602D06D13B46012231462046FFF775FEB0
:1032D00005E03B46012231462046FFF7A4FE294681
:1032E0002046FFF7D2FF208940F007002081BDE88B
:1032F000F08130B50C4600210189C9B24FF6FF7547
:1033000005EA0325154325432943018130BD2DE9F5
:10331000F04105460E4617469846002443463A4675
:1033200031462846FFF7E5FF2C894FF6F870044038
:1033300044F007044FF68F70044044F070042C8171
:10334000BDE8F081F0B504460D4616461F463B46E3
:10335000324629462046FFF7CCFF208940F48040C2
:103360002081F0BD82884FF68F731A408280828858
:103370000A438280704702894FF6F8731A4002812F
:1033800002890A430281704702894FF67F731A400F
:10339000028102890A4302817047F0B50C46154646
:1033A0001E460021002200230189028B038C4FF668
:1033B000F877394021434FF6FC473A4040F2011775
:1033C0003A434FF6DD773B404FF6FF7707EA0617A3
:1033D0002F433B43018102830384F0BD21B18288E6
:1033E00042F08002828004E082884FF67F731A40A8
:1033F00082807047A0F850107047000010B5044656
:10340000FA48844208D101211020FFF700F9002179
:103410001020FFF7FCF857E0F548844209D101215C
:103420004804FFF7E3F800214FF40030FFF7DEF81F
:103430004AE0F048844209D101218804FFF7D6F818
:1034400000214FF48020FFF7D1F83DE0EA488442A4
:1034500009D10121C804FFF7C9F800214FF4002069
:10346000FFF7C4F830E0E548844209D1012108059E
:10347000FFF7BCF800214FF48010FFF7B7F823E006
:10348000DF48844208D101212020FFF7C0F8002145
:103490002020FFF7BCF817E0DA48844209D1012167
:1034A0008807FFF7A3F800214FF08040FFF79EF850
:1034B0000AE0D548844207D101214005FFF796F87C
:1034C00000216005FFF792F810BD2DE9FF47054682
:1034D0000E460024A14600BFA046B08900B100BF3F
:1034E0002C8A24F44054F08804432C82AC8941F2A5
:1034F0000C608443B08831890843718908430443D0
:10350000AC81AC8A24F44074B0890443AC82684630
:10351000FEF7FDFEB548854202D0B948854202D18A
:10352000DDF80C9001E0DDF80890A88900F4004077
:1035300040B109EBC90000EB091031684900B0FB4C
:10354000F1F707E009EBC90000EB091031688900C9
:10355000B0FBF1F76420B7FBF0F00401200964210F
:1035600001FB1078A88900F4004040B1322000EB44
:10357000C800B0FBF1F000F00700044308E032207F
:1035800000EB08106421B0FBF1F000F00F000443E1
:103590002C81BDE8FF874FF4165101600021818026
:1035A000C18001810C21418100218181704710B5CA
:1035B00002460020108A20F470600B884C88234358
:1035C0008C882343CC8823431843108210BD0021EC
:1035D000018041808180C180704721B1828942F49D
:1035E0000052828104E082894DF6FF731A40828185
:1035F0007047028B02F47F420283028B0A430283EC
:10360000704721B1828942F40042828103E08289BD
:10361000C2F30E028281704721B1828A42F40062B5
:10362000828204E0828A4FF2FF731A4082827047DE
:10363000C1F308028280704701468888C0F3080001
:103640007047028A4FF6F0731A400282028A0A43D8
:103650000282704721B1828942F00202828104E035
:1036600082894FF6FD731A408281704782894FF23A
:10367000FF731A40828182890A4382817047028ADD
:103680004FF6DF731A400282028A0A4302827047B1
:1036900021B1028A42F48042028204E0028A4BF69F
:1036A000FF731A4002827047818941F001018181D4
:1036B000704721B1828A42F00802828204E0828A45
:1036C0004FF6F7731A4082827047028BD2B20283A0
:1036D000028B42EA01220283704721B1828A42F0C2
:1036E0002002828204E0828A4FF6DF731A408282CF
:1036F000704721B1828A42F01002828204E0828AFD
:103700004FF6EF731A4082827047828A4FF6FB733E
:103710001A408282828A0A438282704721B1828A59
:1037200042F00202828204E0828A4FF6FD731A4060
:10373000828270471AB1838A0B43838202E0838AB4
:103740008B4383827047F0B5034600240026002592
:10375000002040F66A17B94200D100BF1846C1F3F5
:10376000421401F01F06012707FA06F5012C01D1CA
:103770000C3004E0022C01D1103000E014301AB1FA
:1037800007682F43076002E00768AF430760F0BD9A
:1037900002460020B1F5007F00D100BF13880B4026
:1037A0000BB1012000E00020704701F40072B2F577
:1037B000007F00D100BFCA430280704770B5024647
:1037C000002400230025002040F66A16B14200D1F3
:1037D00000BFC1F3421501F01F03012606FA03F3EF
:1037E000012D13D19689334017E0000000100140ED
:1037F0000044004000480040004C004000500040A1
:103800000014014000780040007C0040022D02D1ED
:10381000168A334001E0968A33400C12012606FADC
:1038200004F41688344013B10CB1012000E00020EC
:1038300070BD10B50022002340F66A14A14200D1E9
:1038400000BF0A1201249440A3B2DC43048010BDDF
:1038500030B50B46014600202022012409E021FA60
:1038600002F59D4205D303FA02F5491B04FA02F55D
:103870002844151EA2F10102F1DC30BD064C074DB3
:1038800006E0E06840F0010394E807009847103430
:10389000AC42F6D3FCF77CFC3840000858400008E6
:1038A0000FB4084B10B504A902AA039800F01CF845
:1038B000044602A9002000F0C1F8204610BC5DF8C3
:1038C00014FB00003D3A000802E008C8121F08C1BE
:1038D000002AFAD170477047002001E001C1121F91
:1038E000002AFBD1704700002DE9FF4F89B09B46AD
:1038F0000446002506E025280BD05A460B99904730
:10390000641C6D1C20780028F5D10DB02846BDE858
:10391000F08F0027B8460122474900E0074314F81A
:10392000013F203B02FA03F00842F7D120782E280D
:1039300019D114F8010F47F004072A280ED06FF0B0
:103940002F022078A0F1300109290CD808EB88015A
:1039500002EB410100EB0108641CF2E70A98641CC9
:1039600050F8048B0A9020780028CED0642808D024
:10397000692806D075281ED05A460B9990476D1CB1
:1039800058E00A994FF00A0901C90A91002802DAA1
:1039900040422D2102E0390504D52B218DF820105D
:1039A000012103E0F90704D02021F7E78A4608AE99
:1039B0000DE00021FAE70A994FF00A0901C90A91BE
:1039C000F7E74946FFF744FF303106F8011D0028AC
:1039D000F7D1ADEB060000F12009780701D44FF0D4
:1039E0000108C84502DDA8EB090000E00020804680
:1039F000002706E008A85A46C05D0B9990476D1C49
:103A00007F1C5745F6DB04E030205A460B9990475F
:103A10006D1CB8F10001A8F10108F5DC05E016F80D
:103A2000010B5A460B9990476D1CB9F10001A9F1A1
:103A30000109F4DC641C65E7092801000A68531CCD
:103A40000B601070704700000000000000000000D4
:103A5000000000000000000000F80000000000006E
:103A600000333000000000100C06100C06000000AF
:103A700000000000000040C07840C0784000043FD3
:103A800004043F040400007088FC083000000018A3
:103A900020FF211E0000F008F000E01800000021C7
:103AA0001C031E211E0000F00888700000001E216B
:103AB00023241927211010160E000000000000001A
:103AC000000000000000000000E0180402000000F8
:103AD00000071820400000020418E0000000004029
:103AE000201807000000404080F0804040000202A3
:103AF000010F01020200000000F0000000000101BF
:103B0000011F01010100000000000000000080B062
:103B10007000000000000000000000000000000134
:103B2000010101010101000000000000000000305F
:103B300030000000000000000000806018040060F9
:103B400018060100000000E010080810E000000F57
:103B5000102020100F00001010F8000000000020BE
:103B6000203F202000000070080808887000003006
:103B700028242221300000300888884830000018AE
:103B8000202020110E000000C02010F800000007C7
:103B90000424243F240000F808888808080000193D
:103BA000212020110E0000E0108888180000000F6E
:103BB000112020110E0000380808C8380800000045
:103BC000003F000000000070880808887000001C9A
:103BD000222121221C0000E010080810E000000053
:103BE000312222110F00000000C0C00000000000C0
:103BF00000303000000000000080000000000000E5
:103C000080600000000000008040201008000001DB
:103C1000020408102000404040404040400004049E
:103C20000404040404000008102040800000002068
:103C3000100804020100007048080808F0000000A5
:103C4000003036010000C030C828E810E000071836
:103C5000272423140B000000C038E0000000203CA3
:103C600023020227382008F8888888700000203F47
:103C7000202020110E00C03008080808380007185E
:103C800020202010080008F808080810E000203F55
:103C9000202020100F0008F88888E8081000203F36
:103CA00020202320180008F88888E8081000203F0A
:103CB000200003000000C030080808380000071882
:103CC0002020221E020008F808000008F808203F03
:103CD000210101213F20000808F808080000002009
:103CE000203F2020000000000808F8080800C080DD
:103CF00080807F00000008F888C028180800203F56
:103D000020012638200008F8080000000000203FAD
:103D100020202020300008F8F800F8F80800203FA4
:103D2000003F003F200008F830C00008F808203F9E
:103D3000200007183F00E01008080810E0000F10EE
:103D4000202020100F0008F808080808F000203F85
:103D5000210101010000E01008080810E0000F1820
:103D6000242438504F0008F8888888887000203F45
:103D70002000030C30200070880808083800003844
:103D8000202121221C00180808F80808180000004B
:103D9000203F2000000008F808000008F808001F75
:103DA000202020201F000878880000C83808000064
:103DB00007380E010000F80800F80008F800033C7E
:103DC0000700073C03000818688080681808203046
:103DD0002C03032C30200838C800C8380800000025
:103DE000203F2000000010080808C83808002038CC
:103DF000262120201800000000FE02020200000020
:103E0000007F40404000000C30C000000000000077
:103E100000010638C00000020202FE00000000405F
:103E200040407F0000000000040202020400000085
:103E30000000000000000000000000000000808082
:103E4000808080808080000202040000000000006A
:103E50000000000000000000808080800000001949
:103E6000242222223F2008F8008080000000003F2A
:103E7000112020110E000000008080800000000E44
:103E8000112020201100000000808088F800000E22
:103E9000112020103F200000808080800000001F43
:103EA000222222221300008080F0888888180020B7
:103EB000203F202000000000808080808000006B78
:103EC00094949493600008F8008080800000203F64
:103ED000210000203F200080989800000000002072
:103EE000203F20200000000000809898000000C0C3
:103EF0008080807F000008F8000080808000203FE4
:103F000024022D302000000808F8000000000020E6
:103F1000203F202000008080808080808000203F23
:103F200020003F20003F8080008080800000203FF4
:103F3000210000203F200000808080800000001FC2
:103F4000202020201F00808000808000000080FF53
:103F5000A12020110E000000008080808000000E53
:103F6000112020A0FF8080808000808080002020A1
:103F70003F2120000100000080808080800000330D
:103F8000242424241900008080E0808000000000A8
:103F9000001F202000008080000000808000001FA3
:103FA000202020103F208080800000808080000141
:103FB0000E300806010080800080008080800F3075
:103FC0000C030C300F0000808000808080000020F7
:103FD000312E0E3120008080800000808080808122
:103FE0008E70180601000080808080808000002193
:103FF000302C2221300000000000807C02020000F2
:104000000000003F404000000000FF0000000000F2
:104010000000FF0000000002027C80000000004061
:10402000403F0000000000060101020204040000FD
:1040300000000000000000005840000800000020C0
:1040400000010000C83800085841000800010020A5
:1040500008050000D838000800000000010000003A
:104060000000000000000000000000002D00000023
:104070001500000070000000160000006E00000037
:10408000580000002C0000005700000068060000E7
:10409000B506000096050000B5060000A00500006A
:1040A000DC05000082060000DC050000000045433E
:1040B00000C078440000454300C078440000000080
:1040C00000000000000000000000000000000000F0
:1040D0000000000000009D4200005E420000000061
:1040E00000000000000000000000000000000000D0
:1040F00000000000000000000000000000000000C0
:1041000000000000000000000000000000000000AF
:10411000000000000000000000000000000000009F
:104120000000000000000000007A030A0000000008
:104130000000000001020304060708090100000056
:104140000000000000000000000000000102030465
:0841500001020304060708093F
:040000050800018965
:00000001FF
